:1000000028C04CC032C24AC049C0E5C147C046C042
:1000100045C044C043C042C041C040C03FC00000D2
:10002000000036000000000037000000000038002B
:10003000020202020202020202020102040810206D
:1000400020041008010200000400000000001F044A
:10005000B90411241FBECFE5D2E0DEBFCDBF20E042
:10006000AAE7B0E001C01D92A53FB207E1F710E09A
:10007000A0E6B0E0E4EDFEE002C005900D92AA37E4
:10008000B107D9F710E0C8E2D0E003C02197FE0124
:1000900024D5C732D107D1F760D210C7B1CF0895A8
:1000A000AF92BF92CF92DF92EF92FF920F931F9386
:1000B000CF93DF936C017B018B01040F151FEB01C4
:1000C0005E01AE18BF08C017D10759F06991D6017B
:1000D000ED91FC910190F081E02DC6010995892BED
:1000E00079F7C501DF91CF911F910F91FF90EF90AC
:1000F000DF90CF90BF90AF90089590E0FC01EC5B53
:10010000FF4F3491FC01E65CFF4F2491FC01E05D60
:10011000FF4FE491EE23B9F0332329F0323001F19F
:1001200098F43130C9F0F0E0EE0FFF1FE65DFF4FAD
:10013000A591B4918FB7F894EC91611114C02095FA
:100140002E232C938FBF0895333011F0343059F79C
:100150008CB58F7D8CBDE7CF8AB58F778ABDE3CF15
:100160008AB58F7DFBCF2E2BECCFCF93DF9390E022
:10017000FC01E65CFF4F2491805D9F4FFC01849160
:100180008823D1F090E0880F991FFC01EC5DFF4FB0
:10019000A591B491FC01E65DFF4FC591D491611129
:1001A0000EC09FB7F8948C91E22FE0958E238C932C
:1001B0002881E223E8839FBFDF91CF9108958FB715
:1001C000F894EC91E22BEC938FBFF6CF2091BC001A
:1001D0003091BD002817390771F49091BA008091D1
:1001E000BB00981741F0E091BA00F0E0E658FF4FED
:1001F000808190E008958FEF9FEF08950895EF922A
:10020000FF920F931F93CF93DF93DC015C96ED90E9
:10021000FC905D97E114F10479F481E090E013968D
:100220009C938E93129790E080E0DF91CF911F9185
:100230000F91FF90EF9008955196ED91FC91529798
:1002400050968C915097982F90950FB75E962C9161
:100250005E97122F127021FD6095F8942081112372
:1002600019F1282B2083E7012197F1F728E0462F89
:1002700050E0308160FF1AC0382B3083E7012197AE
:10028000F1F7BA0175956795215089F7112381F02F
:100290008081892380830FBF5C968D919C9101970B
:1002A000F1F781E090E0C1CF2923DCCF3923E5CFFE
:1002B0009081892BEFCF2091BC003091BD00281791
:1002C000390769F48091BB002091BA0090E0805C0E
:1002D0009F4F821B910960E470E0D8D3089590E0AD
:1002E00080E008952091BC003091BD0028173907A7
:1002F000B9F49091BA008091BB00981789F0E09111
:10030000BA00F0E0E658FF4F80812091BA0030E05B
:100310002F5F3F4F2F7333272093BA0090E008954B
:100320008FEF9FEF089590E080E008952091C30043
:100330003091C4002230310530F0E091BF00F091DF
:10034000C0003097A1F41092BE00EEEBF0E02081E7
:10035000203379F02133B9F42091E6003091E700A1
:10036000820F931F9093E7008093E60008953196E3
:10037000EECF2091E6003091E700281B390B309337
:10038000E7002093E60008950F931F93CF93DF9328
:10039000EC0188819981009759F02A813B812617C9
:1003A000370730F081E0DF91CF911F910F910895D1
:1003B0008B016F5F7F4FBCD4009759F0998388837E
:1003C0001B830A832C813D81232B61F7FC01108262
:1003D000E9CF80E0E8CF1F920F920FB60F92112461
:1003E0002F933F938F939F93AF93BF938091ED0093
:1003F0009091EE00A091EF00B091F0003091EC00F0
:1004000020E3230F2D3758F54096A11DB11D2093F1
:10041000EC008093ED009093EE00A093EF00B0937A
:10042000F0008091E8009091E900A091EA00B0917D
:10043000EB000196A11DB11D8093E8009093E900A7
:10044000A093EA00B093EB00BF91AF919F918F9181
:100450003F912F910F900FBE0F901F90189523EB97
:10046000230F4196A11DB11DD2CF1F920F920FB63F
:100470000F9211242F933F934F935F936F937F932A
:100480008F939F93AF93BF93EF93FF93E091BC0043
:10049000F091BD00309749F0A685B7858585968D8A
:1004A00091FF14C09C918923A1F4FF91EF91BF911A
:1004B000AF919F918F917F916F915F914F913F91FC
:1004C0002F910F900FBE0F901F9018959C9189232C
:1004D00061F7A389B4899C918589809589238C9340
:1004E000868997890197F1F7608D718DA685B7850B
:1004F000558538E020E0CB010197F1F7822F90E09D
:1005000095958795282F4C91452309F02068315007
:1005100091F7868D81FD20958091BB0090E001963A
:100520008F7399273091BA00381799F0A091BB00CA
:10053000B0E0A658BF4F2C938093BB00828D938D63
:100540000197F1F7A389B4898C919589892B8C93B4
:10055000ACCF868D8160868FF1CFCF93DF93CDB7FF
:10056000DEB768970FB6F894DEBF0FBECDBF7894A4
:100570008AB582608ABD8AB581608ABD83B7826090
:1005800083BF83B7816083BF89B7826089BF80B72B
:10059000826080BF3298319A309A379A8CB58064E5
:1005A0008CBD1092E0001092DF001092DE001092DD
:1005B000DD001092DC001092DB008DEC90E0909357
:1005C000E2008093E1003091D100353020F545E51F
:1005D00050E05093DC004093DB004BEC50E0509334
:1005E000DE004093DD0040E950E05093E00040938E
:1005F000DF002BB720622BBF45E350E05093D900BA
:100600004093D80021E001C0220F3A95EAF72093E9
:10061000DA000197F1F78091DF009091E000892BDB
:1006200049F1E091BC00F091BD0080E0E53CF807A5
:1006300009F1309739F0A389B4899C918589809517
:1006400089238C938091E3008E7F8093E300109246
:10065000BB001092BA0085EC90E09093BD008093AF
:10066000BC00E091D800F091D90080819091DA002F
:10067000892B808361E080E078DD61E081E075DDD9
:1006800061E082E072DD8E010F5F1F4F90E0E92E86
:1006900090E0F92EC090E600D090E7008091E40051
:1006A0009091E500C816D906D9F060E082E025DD1A
:1006B000AC2C88E0B82E6A2D617081E01EDDA69416
:1006C00061E080E01ADD60E080E017DDBA94B110EF
:1006D000F2CF61E082E011DDD092E500C092E4004B
:1006E00085EC90E0E8DD892B09F48EC085EC90E084
:1006F000F9DD1C8A1B8A1E8A1D8A188E1F8A4AE011
:10070000B8015AD1F80101900020E9F731976F0143
:10071000C01AD10AB601CE01439636DE2B893C8938
:10072000811151C02115310511F0C90178D21C8AFF
:100730001B8A188E1F8A1E8A1D8A8091BF00909185
:10074000C000009709F446C06B897C89611571056A
:1007500009F43FC04091C1005091C2002F89388DEB
:1007600042175307B0F1A3D38F89988D9093C4009B
:100770008093C300188E1F8A8B899C89009709F08B
:100780004ED28091C3009091C400892B31F0E0914A
:10079000BF00F091C000309721F41092BE00EEEB44
:1007A000F0E0E081E153E83078F50E2E000CFF0B0D
:1007B000E552FC4F099425C02DC02FC031C033C075
:1007C00035C037C039C0D88ECF8AB801C9016FD3C0
:1007D000B4CF25D28B899C899093C0008093BF00B1
:1007E0008D899E899093C2008093C1008F89988DD6
:1007F0009093C4008093C3001C8A1B8A1E8A1D8AA2
:10080000B9CF81E090E092DDE114F10409F442CF28
:10081000F7DB40CF82E090E0F6CF84E090E0F3CFCA
:1008200088E090E0F0CF80E190E0EDCF80E290E0D2
:10083000EACF80E490E0E7CF80E890E0E4CF109248
:10084000C0001092BF001092C2001092C10010921E
:10085000C4001092C30070E060E08FEB90E094DD84
:100860002091BF003091C00081117AC0211531055F
:1008700011F0C901D4D11092C0001092BF001092A3
:10088000C4001092C3001092C2001092C1001092D6
:10089000C8001092C70088EE93E0A0E0B0E080931B
:1008A000C9009093CA00A093CB00B093CC008AE615
:1008B00090E09093C6008093C5001092DC001092E7
:1008C000DB001092DE001092DD001092E00010922A
:1008D000DF001092E2001092E1006091E3006E7F71
:1008E0006D7F6093E3006695617081E068278FEF0C
:1008F00004DC61E08FEF39DCE9E3F1E0E491E093BF
:10090000D500EFE2F1E0E491F0E0EE0FFF1FE65DCD
:10091000FF4F859194919093D7008093D60060E02B
:1009200083E023DC8091E30081FD03C061E083E08C
:10093000E4DB83E08093D100EDE3F0E0E491E09329
:10094000D200E3E3F0E0E491F0E0EE0FFF1FE25E9F
:10095000FF4F859194919093D4008093D300089594
:100960001092C4001092C30068E770E0C9019FD2E2
:100970008ECF8AE690E09093C6008093C500809168
:10098000BC009091BD00855C904071F4E091D8006E
:10099000F091D90090818091DA008095892380833D
:1009A0001092BD001092BC008091BF009091C000D9
:1009B000009709F034C10895BB274A3031F49923D8
:1009C00022F4BDE2909581959F4F01C0BB27FB01AA
:1009D0005527AA27880F991FAA1FA41710F0A41B38
:1009E00083955051B9F7A05DAA3308F0A95DA19392
:1009F000009779F7B111B1931192CB0100C0DC01DE
:100A0000FC01672F71917723E1F7329704C07C9145
:100A10006D9370836291AE17BF07C8F308952F924C
:100A20003F924F925F926F927F928F929F92AF927E
:100A3000BF92CF92DF92EF92FF920F931F93CF93CB
:100A4000DF93CDB7DEB7CA1BDB0B0FB6F894DEBF62
:100A50000FBECDBF09942A88398848885F846E8488
:100A60007D848C849B84AA84B984C884DF80EE80D2
:100A7000FD800C811B81AA81B981CE0FD11D0FB6DB
:100A8000F894DEBF0FBECDBFED01089597FB072E92
:100A900016F4009406D077FD08D00BD007FC05D0E3
:100AA0003EF4909581959F4F0895709561957F4F85
:100AB0000895AA1BBB1B51E107C0AA1FBB1FA617A5
:100AC000B70710F0A61BB70B881F991F5A95A9F7F7
:100AD00080959095BC01CD010895EE0FFF1F059004
:100AE000F491E02D09940F931F93CF93DF938230FD
:100AF000910510F482E090E0E091F300F091F400B1
:100B000030E020E0B0E0A0E0309799F42115310505
:100B100009F44AC0281B390B24303105D8F58A81E5
:100B20009B816115710589F1FB0193838283FE012D
:100B300011C0408151810281138148175907E0F0AB
:100B40004817590799F4109761F012960C93129771
:100B500013961C933296CF01DF91CF911F910F9185
:100B600008950093F3001093F400F4CF211531059C
:100B700051F04217530738F0A901DB019A01BD017A
:100B8000DF01F801C1CFEF01F9CF9093F40080931A
:100B9000F300CDCFFE01E20FF31F8193919322501A
:100BA000310939832883D7CF2091F1003091F200A9
:100BB000232B41F420916200309163003093F200C6
:100BC0002093F100209160003091610021153105E2
:100BD00041F42DB73EB74091640050916500241B4D
:100BE000350BE091F100F091F200E217F307A0F469
:100BF0002E1B3F0B2817390778F0AC014E5F5F4F73
:100C00002417350748F04E0F5F1F5093F2004093B2
:100C1000F100819391939FCFF0E0E0E09CCFCF93E0
:100C2000DF930097E9F0FC01329713821282A091C2
:100C3000F300B091F400ED0130E020E01097A1F452
:100C400020813181820F931F2091F1003091F200B9
:100C50002817390709F061C0F093F200E093F10022
:100C6000DF91CF910895EA01CE17DF07E8F54A81B9
:100C70005B819E0141155105B1F7E901FB83EA83D0
:100C800049915991C40FD51FEC17FD0761F480817C
:100C900091810296840F951FE9019983888382814F
:100CA00093819B838A83F0E0E0E012968D919C9182
:100CB00013970097B9F52D913C911197CD010296AC
:100CC000820F931F2091F1003091F200281739070D
:100CD00039F6309751F51092F4001092F300B0936A
:100CE000F200A093F100BCCFD383C2834081518135
:100CF000840F951FC817D90761F44E5F5F4F888135
:100D00009981480F591F518340838A819B81938326
:100D100082832115310509F0B0CFF093F400E09300
:100D2000F3009ECFFD01DC01C0CF13821282D7CF2A
:100D3000B0E0A0E0EDE9F6E074CE8C01009741F45C
:100D4000CB01D1DE8C01C801CDB7DEB7E0E185CEA5
:100D5000FC01E60FF71F9C0122503109E217F3074F
:100D600008F499C0D901CD91DC911197C617D70726
:100D700090F0C530D10538F3CE0104978617970758
:100D800010F3C61BD70B2297C193D1936D937C931D
:100D9000CF0145DFD8CF5B01AC1ABD0A4C018C0EE8
:100DA0009D1EA091F300B091F400512C412CF12C28
:100DB000E12C109731F58091F1009091F2008815A7
:100DC000990509F05CC04616570608F058C0809196
:100DD000600090916100009741F48DB79EB74091FB
:100DE000640050916500841B950BE817F90708F023
:100DF00052C0F093F200E093F100F9017183608337
:100E0000A2CF8D919C91119712966C901297139688
:100E10007C901397A815B90559F56C0142E0C40EF2
:100E2000D11CCA14DB0420F1AC014A195B09DA01B8
:100E30001296159780F06282738251834083D901A4
:100E40006D937C93E114F10471F0D7011396FC9338
:100E5000EE93129778CF22968C0F9D1FF901918304
:100E60008083F301EFCFF093F400E093F3006BCFB6
:100E70004816590608F42C017D01D3019ACFCB0105
:100E800032DE7C01009739F0AE01B80107D0C8010D
:100E9000C6DE870158CF10E000E055CFFB01DC0132
:100EA00002C001900D9241505040D8F70895FB01C7
:100EB000DC0101900D920020E1F7089510E0C8E2F6
:100EC000D0E003C0FE0109DE2196C932D107D1F777
:040ED000F894FFCFC4
:100ED4000000F500800000000000FF0050009301B6
:0A0EE400FE005B017201E600000051
:00000001FF
