:1000000028C04CC0A3C34AC049C056C347C046C05D
:1000100045C044C043C042C041C040C03FC00000D2
:100020000000370001020000040000000000000092
:100030000000360000000000380002020202020246
:1000400002020202010204081020200410084905DF
:10005000840511241FBECFE5D2E0DEBFCDBF21E075
:10006000AAE7B0E001C01D92A431B207E1F710E0A9
:10007000A0E6B0E0E4EAF0E102C005900D92AA37F4
:10008000B107D9F710E0C8E2D0E003C02197FE0124
:100090000CD6C732D107D1F7D1D3F8C7B1CF209151
:1000A000EA003091EB008217930738F42091E600C4
:1000B0003091E7002115310529F41092EC008CEE07
:1000C00090E00895820F931F08950895AF92BF9214
:1000D000CF92DF92EF92FF920F931F93CF93DF9314
:1000E0006C017B018B01040F151FEB015E01AE1843
:1000F000BF08C017D10759F06991D601ED91FC9165
:100100000190F081E02DC6010995892B79F7C50191
:10011000DF91CF911F910F91FF90EF90DF90CF90E3
:10012000BF90AF90089590E0FC01EC5DFF4F3491DB
:10013000FC01EC5BFF4F2491FC01E65CFF4FE49176
:10014000EE23B9F0332329F0323001F198F4313045
:10015000C9F0F0E0EE0FFF1FEC5CFF4FA591B491EA
:100160008FB7F894EC91611114C020952E232C9335
:100170008FBF0895333011F0343059F78CB58F7D2F
:100180008CBDE7CF8AB58F778ABDE3CF8AB58F7DE7
:10019000FBCF2E2BECCFCF93DF9390E0FC01EC5BF9
:1001A000FF4F2491865C9F4FFC0184918823D1F0FE
:1001B00090E0880F991FFC01E25EFF4FA591B4917A
:1001C000FC01EC5CFF4FC591D49161110EC09FB74B
:1001D000F8948C91E22FE0958E238C932881E22372
:1001E000E8839FBFDF91CF9108958FB7F894EC918A
:1001F000E22BEC938FBFF6CF0F931F93CF93DF9338
:10020000EC01162F042F1B821A8288EE93E0A0E0E7
:10021000B0E08C839D83AE83BF838AE690E09983B0
:1002200088831F8A1E8A198E188E1B8E1A8E1D8E29
:100230001C8E6E8D6E7F6D7F6E8F6695617081E016
:100240006827842F70DF61E0802FA5DF802F90E08A
:10025000FC01EC5BFF4FE491E88BFC01E65CFF4F97
:10026000E491F0E0EE0FFF1FEC5CFF4F859194915D
:100270009A8B898B60E0812F8EDF8E8D81FD03C08C
:1002800061E0812F50DF1C87812F90E0FC01EC5B47
:10029000FF4FE491ED87FC01E65CFF4FE491F0E055
:1002A000EE0FFF1FE25DFF4F859194919F878E8730
:1002B000DF91CF911F910F9108953FB7F8948091EE
:1002C000BF009091C000A091C100B091C20022B7C0
:1002D00008B601FE05C02F3F19F00196A11DB11D02
:1002E0003FBFBA2FA92F982F8827BC01CD01620FDD
:1002F000711D811D911D46E0660F771F881F991F94
:100300004A95D1F708952091EF003091F000281719
:10031000390771F49091ED008091EE00981741F04B
:10032000E091ED00F0E0E658FF4F808190E0089505
:100330008FEF9FEF08950895EF92FF920F931F9311
:10034000CF93DF93DC015C96ED90FC905D97E11418
:10035000F10479F481E090E013969C938E931297C8
:1003600090E080E0DF91CF911F910F91FF90EF908F
:1003700008955196ED91FC91529750968C9150971B
:10038000982F90950FB75E962C915E97122F127052
:1003900021FD6095F8942081112319F1282B2083E9
:1003A000E7012197F1F728E0462F50E0308160FF08
:1003B0001AC0382B3083E7012197F1F7BA01759500
:1003C0006795215089F7112381F0808189238083EB
:1003D0000FBF5C968D919C910197F1F781E090E0C1
:1003E000C1CF2923DCCF3923E5CF9081892BEFCFF3
:1003F0002091EF003091F0002817390769F48091BF
:10040000EE002091ED0090E0805C9F4F821B9109EF
:1004100060E470E001D4089590E080E008952091B8
:10042000EF003091F00028173907B9F49091ED00F2
:100430008091EE00981789F0E091ED00F0E0E65829
:10044000FF4F80812091ED0030E02F5F3F4F2F73F1
:1004500033272093ED0090E008958FEF9FEF0895EC
:10046000E091EF00F091F000E817F90769F4A38933
:10047000B4899C918589809589238C931092F00092
:100480001092EF0081E0089580E00895CF93DF930C
:10049000EC011B8E1A8E198E188E1F8A1E8A8DEC07
:1004A00090E09D8F8C8F8C85853010F585E590E0F0
:1004B0009F8B8E8B8BEC90E0998F888F80E990E0FA
:1004C0009B8F8A8F8BB780628BBF9C8530E020E04A
:1004D000953010F425E330E03C8B2B8B81E001C09C
:1004E000880F9A95EAF78D8B8C8D9D8D0197F1F78A
:1004F0008A8D9B8D892BD9F08091EF009091F0002F
:10050000C817D907A1F0009709F0AADF8E8D8E7F5A
:100510008E8F1092EE001092ED00D093F000C093F9
:10052000EF00EB89FC8980819D89892B8083DF9195
:10053000CF91089590E080E008958F929F92AF92BE
:10054000BF920F931F93CF93DF93CDB7DEB7A197E1
:100550000FB6F894DEBF0FBECDBF19A2423008F42B
:100560004AE08E010F5D1F4F842E912CB12CA12CDF
:10057000A501940164D3E62FB901CA01EA303CF524
:10058000E05DD801EE938D01232B242B252B81F7E1
:1005900090E080E0109761F0FD0101900020E9F704
:1005A0003197AF014A1B5B0BBD0181EF90E08EDDFF
:1005B000A1960FB6F894DEBF0FBECDBFDF91CF91ED
:1005C0001F910F91BF90AF909F908F900895E95C1D
:1005D000D8CFCF92DF92EF92FF92CF93DF936B0150
:1005E0007C016DE281EF90E0A7DEEC0166277727C2
:1005F000CB016C197D098E099F094AE09EDF8C0FA3
:100600009D1FDF91CF91FF90EF90DF90CF900895E5
:10061000CF93DF93EC0181E090E041DDFC0180812C
:100620008033A9F08133F1F46091E4007091E5002A
:100630006C0F7D1F7093E5006093E400072E000CA3
:10064000880B990B97FF0AC0DF91CF91C2CF6091C1
:10065000E4007091E5006C1B7D0BECCF4AE0DF916C
:10066000CF916BCFDF91CF9108950F931F93CF93CD
:10067000DF93EC0188819981009759F02A813B81B1
:100680002617370730F081E0DF91CF911F910F914E
:1006900008958B016F5F7F4F33D4009759F0998392
:1006A00088831B830A832C813D81232B61F7FC0106
:1006B0001082E9CF80E0E8CF1F920F920FB60F9221
:1006C00011242F933F938F939F93AF93BF93809168
:1006D000BB009091BC00A091BD00B091BE003091D4
:1006E000BA0020E3230F2D3758F54096A11DB11D08
:1006F0002093BA008093BB009093BC00A093BD00F0
:10070000B093BE008091BF009091C000A091C10045
:10071000B091C2000196A11DB11D8093BF009093BE
:10072000C000A093C100B093C200BF91AF919F9150
:100730008F913F912F910F900FBE0F901F901895A2
:1007400023EB230F4196A11DB11DD2CF1F920F9213
:100750000FB60F9211242F933F934F935F936F9394
:100760007F938F939F93AF93BF93EF93FF93E0910A
:10077000EF00F091F000309749F0A685B7858585A8
:10078000968D91FF14C09C918923A1F4FF91EF9164
:10079000BF91AF919F918F917F916F915F914F9199
:1007A0003F912F910F900FBE0F901F9018959C9125
:1007B000892361F7A389B4899C91858980958923D0
:1007C0008C93868997890197F1F7608D718DA68545
:1007D000B785558538E020E0CB010197F1F7822FEE
:1007E00090E095958795282F4C91452309F0206836
:1007F000315091F7868D81FD20958091EE0090E03B
:1008000001968F7399273091ED00381799F0A091D8
:10081000EE00B0E0A658BF4F2C938093EE00828D7F
:10082000938D0197F1F7A389B4898C919589892BD0
:100830008C93ACCF868D8160868FF1CFCF93DF9381
:10084000CDB7DEB768970FB6F894DEBF0FBECDBF49
:1008500078948AB582608ABD8AB581608ABD83B783
:10086000826083BF83B7816083BF89B7826089BF9D
:1008700080B7826080BF3298319A309A379A8CB5AF
:1008800080648CBD83EC90E001DE81EF90E0FEDDC2
:1008900061E080E080DC61E081E07DDC61E082E0BD
:1008A0007ADCCE0101967C0120E0C22E20E0D22E1F
:1008B0000091E4001091E5008091E2009091E30046
:1008C00008171907E9F160E082E02DDCA02E98E01E
:1008D000B92E6A2D617081E026DCA69461E080E08B
:1008E00022DC60E080E01FDCBA94B110F2CF61E05E
:1008F00082E019DC1093E3000093E200DEDC2B01C0
:100900003C0188EC882E912CA12CB12CD6DC6419EA
:10091000750986099709683E734081059105B0F312
:1009200091E0891A9108A108B108E8EE4E0EE3E0C3
:100930005E1E611C711C81149104A104B10431F785
:1009400083EC90E055DD892B09F47FC083EC90E0C7
:1009500066DD1C8A1B8A1E8A1D8A188E1F8A4AE041
:10096000B701F0D0F70101900020E9F731978F012E
:100970000E191F09B801CE01439677DE2B893C89F9
:10098000811169C02115310511F0C90130D21C8ACD
:100990001B8A188E1F8A1E8A1D8A8091E6009091FC
:1009A000E700009709F45EC06B897C8961157105C9
:1009B00009F457C04091E8005091E9002F89388D23
:1009C0004217530708F44DC05AD38F89988D9093DE
:1009D000EB008093EA00188E1F8A8B899C89009710
:1009E00009F005D24091EA005091EB006091E600D9
:1009F0007091E70081EF90E069DB90E080E04FDBF1
:100A0000FC018081813319F481E090E001DE90E007
:100A100080E045DBFC018081823319F482E090E0C4
:100A2000F7DD90E080E03BDBFC018081833319F44B
:100A300084E090E0EDDD90E080E031DBFC0180813E
:100A4000843319F488E090E0E3DDC114D10409F4A3
:100A50002FCFD6DA2DCF188F0F8BB701C9010FD347
:100A60009CCFC5D18B899C899093E7008093E60049
:100A70008D899E899093E9008093E8008F89988DF5
:100A80009093EB008093EA001C8A1B8A1E8A1D8AC1
:100A9000A2CF1092E7001092E6001092E9001092A7
:100AA000E8001092EB001092EA0070E060E086EE41
:100AB00090E0DBDD2091E6003091E70081111BC062
:100AC0002115310511F0C90192D11092E700109261
:100AD000E6001092EB001092EA001092E9001092EA
:100AE000E8004FEF63E083EC90E086DB44E06FEFDB
:100AF00081EF90E081CB1092EB001092EA0068E762
:100B000070E0C901BCD2EDCFCF93DF93CAE6D0E04D
:100B1000D093F200C093F10081EF90E0A1DCD0937C
:100B2000C400C093C30083EC90E09ADC8091E6009F
:100B30009091E700009719F0DF91CF9158C1DF91B4
:100B4000CF910895BB274A3031F4992322F4BDE2B6
:100B5000909581959F4F01C0BB27FB015527AA2780
:100B6000880F991FAA1FA41710F0A41B839550513A
:100B7000B9F7A05DAA3308F0A95DA193009779F7B2
:100B8000B111B1931192CB0100C0DC01FC01672FC0
:100B900071917723E1F7329704C07C916D93708354
:100BA0006291AE17BF07C8F308952F923F924F92FC
:100BB0005F926F927F928F929F92AF92BF92CF92ED
:100BC000DF92EF92FF920F931F93CF93DF93CDB7F6
:100BD000DEB7CA1BDB0B0FB6F894DEBF0FBECDBF6E
:100BE00009942A88398848885F846E847D848C843F
:100BF0009B84AA84B984C884DF80EE80FD800C8148
:100C00001B81AA81B981CE0FD11D0FB6F894DEBF2A
:100C10000FBECDBFED01089597FB072E16F400948B
:100C200006D077FD08D02DD007FC05D03EF4909576
:100C300081959F4F0895709561957F4F0895A1E22A
:100C40001A2EAA1BBB1BFD010DC0AA1FBB1FEE1F46
:100C5000FF1FA217B307E407F50720F0A21BB30B91
:100C6000E40BF50B661F771F881F991F1A9469F70D
:100C700060957095809590959B01AC01BD01CF0169
:100C80000895AA1BBB1B51E107C0AA1FBB1FA617D3
:100C9000B70710F0A61BB70B881F991F5A95A9F725
:100CA00080959095BC01CD010895EE0FFF1F059032
:100CB000F491E02D09940F931F93CF93DF9382302B
:100CC000910510F482E090E0E0911201F09113019F
:100CD00030E020E0B0E0A0E0309799F42115310534
:100CE00009F44AC0281B390B24303105D8F58A8114
:100CF0009B816115710589F1FB0193838283FE015C
:100D000011C0408151810281138148175907E0F0D9
:100D10004817590799F4109761F012960C9312979F
:100D200013961C933296CF01DF91CF911F910F91B3
:100D300008950093120110931301F4CF211531058A
:100D400051F04217530738F0A901DB019A01BD01A8
:100D5000DF01F801C1CFEF01F9CF90931301809328
:100D60001201CDCFFE01E20FF31F81939193225028
:100D7000310939832883D7CF209110013091110197
:100D8000232B41F4209162003091630030931101D4
:100D900020931001209160003091610021153105F0
:100DA00041F42DB73EB74091640050916500241B7B
:100DB000350BE0911001F0911101E217F307A0F457
:100DC0002E1B3F0B2817390778F0AC014E5F5F4FA1
:100DD0002417350748F04E0F5F1F509311014093C1
:100DE0001001819391939FCFF0E0E0E09CCFCF93EF
:100DF000DF930097E9F0FC01329713821282A091F1
:100E00001201B0911301ED0130E020E01097A1F440
:100E100020813181820F931F2091100130911101A7
:100E20002817390709F061C0F0931101E093100110
:100E3000DF91CF910895EA01CE17DF07E8F54A81E7
:100E40005B819E0141155105B1F7E901FB83EA83FE
:100E500049915991C40FD51FEC17FD0761F48081AA
:100E600091810296840F951FE9019983888382817D
:100E700093819B838A83F0E0E0E012968D919C91B0
:100E800013970097B9F52D913C911197CD010296DA
:100E9000820F931F209110013091110128173907FB
:100EA00039F6309751F51092130110921201B09358
:100EB0001101A0931001BCCFD383C2834081518123
:100EC000840F951FC817D90761F44E5F5F4F888163
:100ED0009981480F591F518340838A819B81938355
:100EE00082832115310509F0B0CFF0931301E0930F
:100EF00012019ECFFD01DC01C0CF13821282D7CF39
:100F0000B0E0A0E0E5E8F7E052CE8C01009741F4B4
:100F1000CB01D1DE8C01C801CDB7DEB7E0E163CEF5
:100F2000FC01E60FF71F9C0122503109E217F3077D
:100F300008F499C0D901CD91DC911197C617D70754
:100F400090F0C530D10538F3CE0104978617970786
:100F500010F3C61BD70B2297C193D1936D937C934B
:100F6000CF0145DFD8CF5B01AC1ABD0A4C018C0E16
:100F70009D1EA0911201B0911301512C412CF12C16
:100F8000E12C109731F58091100190911101881595
:100F9000990509F05CC04616570608F058C08091C4
:100FA000600090916100009741F48DB79EB7409129
:100FB000640050916500841B950BE817F90708F051
:100FC00052C0F0931101E0931001F9017183608325
:100FD000A2CF8D919C91119712966C9012971396B7
:100FE0007C901397A815B90559F56C0142E0C40E21
:100FF000D11CCA14DB0420F1AC014A195B09DA01E7
:101000001296159780F06282738251834083D901D2
:101010006D937C93E114F10471F0D7011396FC9366
:10102000EE93129778CF22968C0F9D1FF901918332
:101030008083F301EFCFF0931301E09312016BCFA4
:101040004816590608F42C017D01D3019ACFCB0133
:1010500032DE7C01009739F0AE01B80107D0C8013B
:10106000C6DE870158CF10E000E055CFFB01DC0160
:1010700002C001900D9241505040D8F70895FB01F5
:10108000DC0101900D920020E1F7089510E0C8E224
:10109000D0E003C0FE0109DE2196C932D107D1F7A5
:0410A000F894FFCFF2
:1010A400000014018000000000009C0166009A0208
:0A10B4009B01F8010F028301000008
:00000001FF
